:100000001EC100004BC1000049C1000047C10000F3
:1000100045C1000043C1000041C100003FC10000D4
:100020003DC100004CC500004AC5000048C50000A5
:1000300035C1000033C1000031C100002FC10000F4
:100040002DC100002BC1000029C1000027C1000004
:1000500025C1000023C1000021C10000E6C400004A
:100060001DC10000ACC4000081C4000017C1000025
:1000700015C1000013C1000011C100000FC1000034
:100080000DC100000BC1000009C1000007C1000044
:1000900005C1000003C1000001C10000FFC0000055
:1000A000FDC00000FBC00000F9C00000F7C0000068
:1000B000F5C00000F3C00000F1C00000EFC0000078
:1000C000EDC00000EBC00000E9C00000E7C0000088
:1000D000E5C00000E3C00000E1C00000DFC0000098
:1000E000DDC00000A002A302920296029C02DA0286
:1000F000A702AB02B102B502B902BF02C302C70236
:10010000DA02CD02D102D50200002200250028002B
:100110002B002E003100340002010000050108010F
:100120000B0100002100240027002A002D003000D0
:10013000330001010000040107010A011112131428
:1001400015160A0B0C0D0E0F0000200023002600D0
:1001500029002C002F0032000001000003010601DD
:10016000090105050505070508080808020202023D
:100170000A0A080804040404010101010101010143
:100180000303030303030303040707070C0C0C0C0E
:100190000C0C0C0C020202020606060606060606F7
:1001A0000B0B0B0B0B0B0B0B010210202008081084
:1001B00020401020408002010201080402010102D7
:1001C00004081020408080402010080402018004B0
:1001D000020180402010080402010804020101020B
:1001E0000408102040800102040810204080000014
:1001F0000A0B02090C0D0E080703040100000000A1
:1002000000000000000000000000000000000000EE
:1002100000000000000000000000121110000000AB
:1002200000000000000000000000000000000000CE
:10023000000000000001020304056905E70811241D
:100240001FBECFEFD1E2DEBFCDBF00E00CBF23E089
:10025000A4E0B3E001C01D92A93DB207E1F713E0AD
:10026000A0E0B2E0E4E3F6E100E00BBF02C00790DB
:100270000D92A430B107D9F711E0CEE1D1E000E052
:1002800005C021970109802FFE01A6D7CD31D107E6
:1002900080E00807B1F7C6D40C94090BB1CECF9219
:1002A000DF92EF92FF920F931F93CF93DF936C0136
:1002B0007A018B01C0E0D0E0CE15DF0581F0D801D6
:1002C0006D918D01D601ED91FC910190F081E02DB1
:1002D000C6011995892B11F02196EECF7E01C70139
:1002E000DF91CF911F910F91FF90EF90DF90CF9012
:1002F0000895FC01538D448D252F30E0842F90E02C
:10030000821B930B541710F0CF9608950197089510
:10031000FC01918D828D981761F0828DDF01A80F0D
:10032000B11D5D968C91928D9F5F9F73928F90E02F
:1003300008958FEF9FEF0895FC01918D828D98179E
:1003400031F0828DE80FF11D858D90E008958FEFDB
:100350009FEF0895FC01918D228D892F90E0805CA4
:100360009F4F821B91098F73992708958AE193E02B
:10037000F1DF21E0892B09F420E0822F0895FC01B0
:10038000848DDF01A80FB11DA35ABF4F2C91848D1E
:1003900090E001968F739927848FA689B7892C9353
:1003A000A089B1898C91837080648C93938D848DA6
:1003B000981306C00288F389E02D80818F7D8083A9
:1003C0000895EF92FF920F931F93CF93DF93EC0169
:1003D00081E0888F9B8D8C8D981305C0E889F98901
:1003E000808185FD25C0F62E0B8D10E00F5F1F4F1D
:1003F0000F731127E02E8C8DE8120BC00FB607FC8F
:10040000FACFE889F989808185FFF5CFCE01B7DF82
:10041000F2CF8B8DFE01E80FF11DE35AFF4FF08202
:100420009FB7F8940B8FEA89FB89808180620AC0AC
:100430009FB7F894EE89FF896083E889F989808104
:100440008370806480839FBF81E090E0DF91CF91D3
:100450001F910F91FF90EF900895CF93DF93EC01E0
:10046000888D8823C1F0EA89FB89808185FD05C0DC
:10047000A889B9898C9186FD0EC00FB607FCF5CF0F
:10048000808185FFF2CFA889B9898C9185FFEDCF56
:10049000CE0175DFE8CFDF91CF91089580E090E045
:1004A000892B19F063DF811125C080E090E0892B52
:1004B00041F080E090E0892B21F00E940000811142
:1004C0001CC080E090E0892B41F080E090E0892B17
:1004D00021F00E940000811113C080E090E0892B80
:1004E000A1F080E090E0892B81F00E940000811152
:1004F0000AC008950E940000D8CF0E940000E1CFFA
:100500000E940000EACF0C940000089590E0FC01E6
:100510003197E231F10508F04DC08827EE58FF4FC2
:100520008F4F5AC6809180008F7703C080918000E2
:100530008F7D80938000089580918000877FF9CF20
:1005400084B58F7702C084B58F7D84BD0895809176
:10055000B0008F7703C08091B0008F7D8093B00092
:100560000895809190008F7707C0809190008F7DD3
:1005700003C080919000877F8093900008958091C0
:10058000A0008F7707C08091A0008F7D03C080916D
:10059000A000877F8093A0000895809120018F772D
:1005A00007C0809120018F7D03C080912001877F4B
:1005B0008093200108951F93CF93DF93282F30E07D
:1005C000F901E251FE4F8491F901E855FE4FD491B3
:1005D000F901EE59FE4FC491CC23B9F0162F8111C9
:1005E00095DFEC2FF0E0EE0FFF1FE85FFE4FA591C7
:1005F000B4919FB7F894111104C08C91D095D82371
:1006000002C0EC91DE2BDC939FBFDF91CF911F9155
:1006100008952091BD033091BE034091BF035091D6
:10062000C0032417350719F0682F822FC4CF08950F
:10063000CF93DF9390E0FC01E855FE4F2491FC013D
:10064000EE59FE4F8491882361F190E0880F991F45
:10065000FC01EE5DFE4FC591D491FC01E85FFE4FB9
:10066000A591B491611109C09FB7F8948881209534
:1006700082238883EC912E230BC0623061F49FB7F4
:10068000F8948881322F309583238883EC912E2B28
:100690002C939FBF06C08FB7F894E8812E2B288338
:1006A0008FBFDF91CF9108958230910538F0880F88
:1006B000991F880F991F05970197F1F70895CF9318
:1006C000DF939CB59F7D9CBD9CB5937F9CBD9CB5E5
:1006D0009C7F9CBD9DB591609DBDCDEBD3E0682F07
:1006E0008A8169DF8C899D89DF91CF91DDCF81E09F
:1006F000E6CF80E0E4CF3FB7F89480910B03909170
:100700000C03A0910D03B0910E0326B5A89B05C064
:100710002F3F19F00196A11DB11D3FBFBA2FA92F80
:10072000982F8827820F911DA11DB11DBC01CD01FD
:1007300042E0660F771F881F991F4A95D1F70895E9
:100740008F929F92AF92BF92CF92DF92EF92FF92E1
:100750006B017C01D0DF4B015C01C114D104E104C9
:10076000F104E9F0C8DFDC01CB0188199909AA0975
:10077000BB09883E9340A105B10578F321E0C21A78
:10078000D108E108F10888EE880E83E0981EA11CCC
:10079000B11CC114D104E104F10421F7DECFFF90B4
:1007A000EF90DF90CF90BF90AF909F908F90089583
:1007B0008EBD00000DB407FEFDCF8EB50895CF931A
:1007C00098DF81EEF5DFC82F92DF8C2FCF9108954F
:1007D000CF93C82F8EDF8C2F8F71EADF8FEFE8DF8A
:1007E000C82F85DF8C2FCF910895CF93DF93C82F2B
:1007F000D62F7FDF8C2F8F718062DADFC82F8D2F8D
:10080000D7DF75DF8C2FDF91CF91089580E0E0DF97
:1008100081FD09C0682F626080E0E7DF65E070E07D
:1008200080E090E08DCF08950F931F93CF938C01BC
:1008300086E0CEDFC82FC77D0230110531F4C062DB
:100840008BE990E0A0E0B0E00DC00130110529F087
:1008500085E590E0A0E0B0E005C0C86081E490E0EC
:10086000A0E0B0E08093CD039093CE03A093CF039C
:10087000B093D0036C2F86E0B8DF86E0A9DF91E06B
:10088000C81390E0892FCF911F910F910895EF9297
:10089000FF920F931F93CF93DF93182F7B01C42FE9
:1008A00028DF812F8F71806283DFD82F8701CC23CF
:1008B00031F0F80181918F017BDFC150F8CF17DF54
:1008C0008D2FDF91CF911F910F91FF90EF900895A1
:1008D0009DDF80E07DDF682F616080E086DF60E77C
:1008E00087E083DF81E095DE8091C603882339F0BD
:1008F0004091CB0366EC73E08AE0C9DF10C082E070
:1009000067DFE4E3F2E0E49121E030E001C0220F90
:10091000EA95EAF72095622F682382E066DF8DE191
:1009200057DF81FD4CCF0895089580E090E0089551
:10093000009761F0FC0101900020E9F73197AF01C9
:10094000481B590BBC018AE193E0A9CC80E090E000
:100950000895CF93DF93ECDFEC0184E292E0E8DFCF
:100960008C0F9D1FDF91CF9108953FD61F920F925C
:100970000FB60F9211240BB60F922F933F934F9304
:100980005F936F937F938F939F93AF93BF93EF93F7
:10099000FF938AE193E0F3DCFF91EF91BF91AF9178
:1009A0009F918F917F916F915F914F913F912F9187
:1009B0000F900BBE0F900FBE0F901F9018951F92B7
:1009C0000F920FB60F9211240BB60F922F938F93A5
:1009D0009F93EF93FF93E0912A03F0912B03808183
:1009E000E0913003F091310382FD12C0908180913B
:1009F00033038F5F8F7320913403821751F0E0919E
:100A00003303F0E0E65EFC4F958F8093330301C023
:100A10008081FF91EF919F918F912F910F900BBE4D
:100A20000F900FBE0F901F9018951F920F920FB648
:100A30000F9211242F933F938F939F93AF93BF9364
:100A40008091070390910803A0910903B0910A03D4
:100A50003091060323E0230F2D3720F40196A11DCA
:100A6000B11D05C026E8230F0296A11DB11D2093DC
:100A700006038093070390930803A0930903B093A0
:100A80000A0380910B0390910C03A0910D03B09188
:100A90000E030196A11DB11D80930B0390930C03CF
:100AA000A0930D03B0930E03BF91AF919F918F91CF
:100AB0003F912F910F900FBE0F901F9018951F928E
:100AC0000F920FB60F9211240F900FBE0F901F9030
:100AD000189510921D0310921C0388EE93E0A0E07D
:100AE000B0E080931E0390931F03A0932003B09364
:100AF000210386E192E090931B0380931A0385EC17
:100B000090E0909327038093260384EC90E09093E9
:100B100029038093280380EC90E090932B0380932B
:100B20002A0381EC90E090932D0380932C0382ECB8
:100B300090E090932F0380932E0386EC90E09093A7
:100B400031038093300310923303109234031092D8
:100B500035031092360387E090E09093BE038093B4
:100B6000BD0388E090E09093C0038093BF03109290
:100B7000C30380E28093C4031092C50385E0809391
:100B8000CB0385E090E0A0E0B0E08093D1039093A8
:100B9000D203A093D303B093D4031092C603109250
:100BA000B8031092B7031092BA031092B9031092CF
:100BB000BC031092BB0361E070E080E090E035D4AC
:100BC000009789F09093B8038093B7031092BA030B
:100BD0001092B9032091BB033091BC03232BB9F4CD
:100BE000FC01108214C08091B7039091B803009764
:100BF00009F092D31092B8031092B7031092BC037D
:100C00001092BB031092BA031092B9030895109288
:100C1000BC031092BB0366E272E08091B70390912F
:100C2000B803F0C4CF93DF93CDB7DEB7A0970FB66C
:100C3000F894DEBF0FBECDBF789484B5826084BDCA
:100C400084B5816084BD85B5826085BD85B58160D0
:100C500085BD80916E00816080936E00109281004E
:100C60008091810082608093810080918100816009
:100C700080938100809180008160809380008091CA
:100C8000B10084608093B1008091B0008160809356
:100C9000B0008091910082608093910080919100DA
:100CA000816080939100809190008160809390009A
:100CB0008091A10082608093A1008091A100816059
:100CC0008093A1008091A00081608093A00080911A
:100CD00021018260809321018091210181608093B4
:100CE00021018091200181608093200180917A0010
:100CF000846080937A0080917A00826080937A0089
:100D000080917A00816080937A0080917A00806877
:100D100080937A001092C10061E08AE089DC61E092
:100D200085E386DC61E086E383DC60E087E380DCEA
:100D3000E0912A03F0912B0382E08083E091260367
:100D4000F09127031082E0912803F09129038FECA2
:100D5000808310923203E0912E03F0912F0386E0FE
:100D60008083E0912C03F0912D038081806180834A
:100D7000E0912C03F0912D03808188608083E091C5
:100D80002C03F0912D03808180688083E0912C03F7
:100D9000F0912D0380818F7D80838091BD039091A0
:100DA000BE032091BF033091C0038217930711F057
:100DB00061E03EDC8091BF039091C0032091BD03B0
:100DC0003091BE032817390711F061E031DC1FB7FD
:100DD000F89480910F03811123C0E7E9F1E0849139
:100DE000EDEDF1E09491E82FF0E0EE0FFF1FEE5DE6
:100DF000FE4FA591B491EC91E92319F461E085E3EC
:100E0000DADB61E085E314DC8CB580618CBD8CB5E8
:100E100080648CBD61E084E30BDC61E083E308DC8B
:100E200080910F038F5F80930F031FBF80E0F1DB82
:100E300081E045DC65E070E080E090E081DC6CE022
:100E400080E0D3DC6FE584E0D0DC82E090E0ECDC95
:100E5000882319F081E08093C30386E0B9DC80E049
:100E600090E0E2DC46DC80E5A3DC83E7A1DC3FDC4C
:100E700060E08DE1BADC60E08CE1B7DC1092C50384
:100E800060E787E0B2DC6CE485E0AFDC32DC82EE68
:100E90008FDC2DDC94DCBADC80E09ADC682F6E7F7E
:100EA00080E0A3DC64E685E0A0DC82E090E0BCDCCE
:100EB0008DE18EDC682F66608DE197DC8CE188DC4B
:100EC000682F63608CE191DC11E01093C50386E02C
:100ED0007FDC887F682F636086E087DC8DE178DCCB
:100EE000682F64608DE181DC8CE172DC682F6F63B8
:100EF0008CE17BDC1093C5036FEF84E076DCE3E4E8
:100F0000F1E084914091CB0366E072E0C0DCEDE358
:100F1000F1E084916091C40368DC82E059DCE5E390
:100F2000F2E0E49161E070E001C0660FEA95EAF753
:100F3000682B82E05ADCCCDC6E0183E0C80ED11C49
:100F400045E2442E42E0542E5FED652E51E0752EB1
:100F500064E3A62E62E0B62E88248394912C87E168
:100F600037DC80FDFCCF87E133DC80FF02C096DAFE
:100F7000F6CF1A821982F6018EE111928A95E9F76D
:100F80008091C403803208F40CC130E2E32E9091CA
:100F9000C503911103C0F82EFE1801C0F12CA9DB86
:100FA00081E606DC8E010F5F1F4F1801EA94EFEF18
:100FB000EE1631F08FEFFCDBF80181938F01F6CF55
:100FC000FF2021F08FEFF4DBFA94FACF90DB60E79B
:100FD00087E00BDC87E292E0BCDC8FE492E0A8DCE7
:100FE000C101B7DC8981833449F48A81833531F4C6
:100FF0008B81833219F461E086E3DDDA89818F34F5
:1010000049F48A81833531F48B81833219F461E0AC
:1010100085E3D1DA8981833509F0A9CF8A818335C7
:1010200009F0A5CF8B81833209F0A1CFF201849121
:10103000F3010491E9E9F1E01491112309F4B3C03B
:10104000811164DAE12FF0E0EE0FFF1FE85BFE4F45
:10105000A591B4918C91082309F4A5C0E3E4E09331
:1010600010038CE480931103FFE4F093120383E5F3
:101070008093130385E48093140384E48093150321
:10108000E3E2E093160383E792E063DC80E193E020
:101090004FDC83E992E05DDC4091CB036CE072E0D1
:1010A0008AE0F5DB4091CB036CE072E080E1EFDB9E
:1010B0006091C40381E199DB80E0ABDA8091CD03DC
:1010C0009091CE03F1DA8DE183DB81FF06C0809140
:1010D000CD039091CE03E8DA72DB80E079DB682FF4
:1010E0006E7F80E082DB82E073DBF50194919401F6
:1010F00001C0220F9A95EAF7682F622B82E075DB18
:1011000062E370E080E090E01BDB8091C403282E56
:101110008B3010F09AE0292E9091C503911103C0F5
:10112000382E321801C0312CE4DA80EA41DB00E1CC
:1011300013E078012A94FFEF2F1629F0F70181912F
:101140007F0136DBF7CF332021F080E031DB3A94AA
:10115000FACFCDDA81E05DDACCDA8FEF29DBF82E39
:10116000C6DA8F2D8073C1F380E053DA60E787E041
:101170003CDB84FF03C023DBF12C02C0FF24F3948B
:10118000A7DBFF2019F086EC92E002C084EE92E02B
:10119000E0DBF80111928F01F3E00A311F07C9F774
:1011A000E6CEE82EF4CEFFE4F093100380E58093C2
:1011B0001103E5E4E0931203FEE4F093130383E2EA
:1011C0008093140310921503109216035CCF809144
:1011D000B7039091B803A0C0EE0FFF1F881F8BBF0D
:1011E0000790F691E02D19940F931F93CF93DF93FF
:1011F0008230910510F482E090E0E091D703F09105
:10120000D80320E030E0A0E0B0E0309719F1408151
:1012100051810281138148175907C8F08417950737
:1012200069F4109731F012960C93129713961C9351
:1012300027C00093D7031093D80322C0211531058E
:1012400019F04217530718F49A01BD01EF01DF01AD
:10125000F801DBCF21153105F9F0281B390B2430BB
:10126000310580F48A819B816115710521F0FB01B4
:101270009383828304C09093D8038093D703FE01A5
:10128000329644C0FE01E20FF31F819391932250E6
:101290003109398328833AC02091D5033091D60390
:1012A000232B41F420910202309103023093D603A4
:1012B0002093D503209100023091010221153105C0
:1012C00041F42DB73EB74091040250910502241B12
:1012D000350BE091D503F091D603E217F307A0F4A4
:1012E0002E1B3F0B2817390778F0AC014E5F5F4F7C
:1012F0002417350748F04E0F5F1F5093D6034093D5
:10130000D5038193919302C0E0E0F0E0CF01DF913B
:10131000CF911F910F910895CF93DF93009709F418
:1013200081C0FC01329713821282A091D703B09141
:10133000D803109781F420813181820F931F20916F
:10134000D5033091D6032817390751F5F093D6030A
:10135000E093D50367C0ED0120E030E0CE17DF0752
:1013600040F44A815B819E0141155105F1F0EA018B
:10137000F5CFD383C28340815181840F951FC81755
:10138000D90759F488819981840F951F029691831A
:1013900080838A819B81938382832115310529F47F
:1013A000F093D803E093D7033DC0E901FB83EA83C0
:1013B00049915991C40FD51FEC17FD0761F4808145
:1013C0009181840F951F0296E90199838883828118
:1013D00093819B838A83E0E0F0E012968D919C914B
:1013E0001397009719F0FD01DC01F7CF8D919C91C7
:1013F00011979D012E5F3F4F820F931F2091D503C0
:101400003091D6032817390769F4309729F41092E0
:10141000D8031092D70302C013821282B093D6036E
:10142000A093D503DF91CF9108956F927F928F9211
:101430009F92AF92BF92CF92DF92EF92FF920F9363
:101440001F93CF93DF93009781F4CB01DF91CF916E
:101450001F910F91FF90EF90DF90CF90BF90AF90D2
:101460009F908F907F906F90BFCEFC01E60FF71F8B
:101470009C0122503109E217F30708F4A5C0EC01E2
:10148000D9010D911C91119706171707A8F0053087
:10149000110508F497C0C80104978617970708F448
:1014A00091C002501109061B170B019311936D9304
:1014B0007C93CF0131DF86C05B01A01AB10A4C01D9
:1014C000800E911EA091D703B091D803612C712C8E
:1014D000E12CF12C109709F446C08D919C91119745
:1014E000A815B905B1F56C0142E0C40ED11CCA14AF
:1014F000DB0478F14C018A189B08640142E0C40EB9
:10150000D11C1296BC9012971396AC91B5E0CB16F5
:10151000D10440F0B282A38391828082D9016D937D
:101520007C9309C00E5F1F4F800F911FF9019183BB
:101530008083EB2DFA2FE114F10431F0D7011396DB
:10154000FC93EE9312973EC0F093D803E093D70339
:1015500039C06816790608F43C017D0112960D9099
:10156000BC91A02DB7CF8091D5039091D60388165A
:101570009906E1F466167706C8F48091000290910E
:101580000102009741F48DB79EB74091040250913B
:101590000502841B950BE817F907B0F4F093D60306
:1015A000E093D503F901718360830CC0CB011CDE8D
:1015B0007C01009749F0A801BE011BD0CE01ACDE32
:1015C000C70104C0CE0102C080E090E0DF91CF915E
:1015D0001F910F91FF90EF90DF90CF90BF90AF9051
:1015E0009F908F907F906F90089581E090E0F894A5
:1015F00010C0FB01DC0102C001900D92415050402F
:10160000D8F70895FB01DC0101900D920020E1F76D
:10161000089511E0CEE1D1E000E005C0802FFE0189
:10162000DBDD2196011DCF31D10780E00807B1F73E
:04163000F894FFCF5C
:101634000000D90380007368757474006D6173745D
:10164400720000000000E1014F0179012D02AA019E
:1016540088019C010D0A0074686973206973207401
:101664006865207368757474657220636F6D6D614D
:101674006E642070726F636573736F722020005400
:10168400686520746578742072656365697665643D
:101694002066726F6D204D6173746572207761737B
:1016A4003A20007468652076616C7565206F662049
:1016B40073687574746572207374617475732069CA
:1016C4007320002D2D2D2D2D2D2D2D2D2D2D2D2D3A
:1016D4002D2D2D2D2D2D2D2D2D2D2D2D2D2D2D2D36
:1016E4002D2D2D2D2D2D2D2D2D2D2D2D2D2D2D2D26
:1016F4002D2D2D2D2D00726573756C74206F662051
:1017040073687574746572205478207761732074DB
:1017140072756500726573756C74206F66207368EA
:1017240075747465722054782077617320657272C1
:041734006F720000D0
:00000001FF
